:0300000002089D56
:0C089D00787FE4F6D8FD7581070208554D
:10085500E4F580F590F5A0F5B07FFAFE12087975FC
:1008650080FF7590FF75A0FF75B0FF7FFA7E0012BF
:04087500087980DCA2
:100879007C007D32120800E4FEEEC39F5015758995
:1008890001758AB0758C04D28C308DFDC28DC28CF5
:030899000E80E6E8
:01089C002239
:10080000BC000BBE0029EF8DF084FFADF022E4CCDC
:10081000F875F008EF2FFFEE33FEEC33FCEE9DECA5
:10082000984005FCEE9DFE0FD5F0E9E4CEFD22EDEB
:10083000F8F5F0EE8420D21CFEADF075F008EF2F35
:10084000FFED33FD4007985006D5F0F222C398FD26
:050850000FD5F0EA22C3
:00000001FF
